{
  "_format": "hh-sol-artifact-1",
  "contractName": "Wallet",
  "sourceName": "contracts/SSIDWithWallet.sol",
  "abi": [
    {
      "inputs": [
        {
          "internalType": "address",
          "name": "_owner",
          "type": "address"
        }
      ],
      "stateMutability": "nonpayable",
      "type": "constructor"
    },
    {
      "inputs": [],
      "name": "getOwner",
      "outputs": [
        {
          "internalType": "address",
          "name": "",
          "type": "address"
        }
      ],
      "stateMutability": "view",
      "type": "function"
    },
    {
      "inputs": [
        {
          "internalType": "address",
          "name": "to",
          "type": "address"
        },
        {
          "internalType": "uint256",
          "name": "amount",
          "type": "uint256"
        },
        {
          "internalType": "contract IERC20",
          "name": "token",
          "type": "address"
        }
      ],
      "name": "transfer",
      "outputs": [],
      "stateMutability": "nonpayable",
      "type": "function"
    }
  ],
  "bytecode": "0x608060405234801561001057600080fd5b50604051610ac0380380610ac0833981810160405281019061003291906100db565b806000806101000a81548173ffffffffffffffffffffffffffffffffffffffff021916908373ffffffffffffffffffffffffffffffffffffffff16021790555050610108565b600080fd5b600073ffffffffffffffffffffffffffffffffffffffff82169050919050565b60006100a88261007d565b9050919050565b6100b88161009d565b81146100c357600080fd5b50565b6000815190506100d5816100af565b92915050565b6000602082840312156100f1576100f0610078565b5b60006100ff848285016100c6565b91505092915050565b6109a9806101176000396000f3fe608060405234801561001057600080fd5b50600436106100365760003560e01c8063893d20e81461003b578063dbba0f0114610059575b600080fd5b610043610075565b60405161005091906104b7565b60405180910390f35b610073600480360381019061006e9190610577565b61009e565b005b60008060009054906101000a900473ffffffffffffffffffffffffffffffffffffffff16905090565b60008054906101000a900473ffffffffffffffffffffffffffffffffffffffff1673ffffffffffffffffffffffffffffffffffffffff163373ffffffffffffffffffffffffffffffffffffffff161461012c576040517f08c379a000000000000000000000000000000000000000000000000000000000815260040161012390610627565b60405180910390fd5b61015783838373ffffffffffffffffffffffffffffffffffffffff1661015c9092919063ffffffff16565b505050565b6101dd8363a9059cbb60e01b848460405160240161017b929190610656565b604051602081830303815290604052907bffffffffffffffffffffffffffffffffffffffffffffffffffffffff19166020820180517bffffffffffffffffffffffffffffffffffffffffffffffffffffffff83818316178352505050506101e2565b505050565b6000610244826040518060400160405280602081526020017f5361666545524332303a206c6f772d6c6576656c2063616c6c206661696c65648152508573ffffffffffffffffffffffffffffffffffffffff166102a99092919063ffffffff16565b90506000815111156102a4578080602001905181019061026491906106b7565b6102a3576040517f08c379a000000000000000000000000000000000000000000000000000000000815260040161029a90610756565b60405180910390fd5b5b505050565b60606102b884846000856102c1565b90509392505050565b606082471015610306576040517f08c379a00000000000000000000000000000000000000000000000000000000081526004016102fd906107e8565b60405180910390fd5b6000808673ffffffffffffffffffffffffffffffffffffffff16858760405161032f9190610879565b60006040518083038185875af1925050503d806000811461036c576040519150601f19603f3d011682016040523d82523d6000602084013e610371565b606091505b50915091506103828783838761038e565b92505050949350505050565b606083156103f05760008351036103e8576103a885610403565b6103e7576040517f08c379a00000000000000000000000000000000000000000000000000000000081526004016103de906108dc565b60405180910390fd5b5b8290506103fb565b6103fa8383610426565b5b949350505050565b6000808273ffffffffffffffffffffffffffffffffffffffff163b119050919050565b6000825111156104395781518083602001fd5b806040517f08c379a000000000000000000000000000000000000000000000000000000000815260040161046d9190610951565b60405180910390fd5b600073ffffffffffffffffffffffffffffffffffffffff82169050919050565b60006104a182610476565b9050919050565b6104b181610496565b82525050565b60006020820190506104cc60008301846104a8565b92915050565b600080fd5b6104e081610496565b81146104eb57600080fd5b50565b6000813590506104fd816104d7565b92915050565b6000819050919050565b61051681610503565b811461052157600080fd5b50565b6000813590506105338161050d565b92915050565b600061054482610496565b9050919050565b61055481610539565b811461055f57600080fd5b50565b6000813590506105718161054b565b92915050565b6000806000606084860312156105905761058f6104d2565b5b600061059e868287016104ee565b93505060206105af86828701610524565b92505060406105c086828701610562565b9150509250925092565b600082825260208201905092915050565b7f4f6e6c79206f776e65722063616e207472616e73666572000000000000000000600082015250565b60006106116017836105ca565b915061061c826105db565b602082019050919050565b6000602082019050818103600083015261064081610604565b9050919050565b61065081610503565b82525050565b600060408201905061066b60008301856104a8565b6106786020830184610647565b9392505050565b60008115159050919050565b6106948161067f565b811461069f57600080fd5b50565b6000815190506106b18161068b565b92915050565b6000602082840312156106cd576106cc6104d2565b5b60006106db848285016106a2565b91505092915050565b7f5361666545524332303a204552433230206f7065726174696f6e20646964206e60008201527f6f74207375636365656400000000000000000000000000000000000000000000602082015250565b6000610740602a836105ca565b915061074b826106e4565b604082019050919050565b6000602082019050818103600083015261076f81610733565b9050919050565b7f416464726573733a20696e73756666696369656e742062616c616e636520666f60008201527f722063616c6c0000000000000000000000000000000000000000000000000000602082015250565b60006107d26026836105ca565b91506107dd82610776565b604082019050919050565b60006020820190508181036000830152610801816107c5565b9050919050565b600081519050919050565b600081905092915050565b60005b8381101561083c578082015181840152602081019050610821565b60008484015250505050565b600061085382610808565b61085d8185610813565b935061086d81856020860161081e565b80840191505092915050565b60006108858284610848565b915081905092915050565b7f416464726573733a2063616c6c20746f206e6f6e2d636f6e7472616374000000600082015250565b60006108c6601d836105ca565b91506108d182610890565b602082019050919050565b600060208201905081810360008301526108f5816108b9565b9050919050565b600081519050919050565b6000601f19601f8301169050919050565b6000610923826108fc565b61092d81856105ca565b935061093d81856020860161081e565b61094681610907565b840191505092915050565b6000602082019050818103600083015261096b8184610918565b90509291505056fea264697066735822122035f92815476344f4f490bc949c278dd3a5817452e439ae86b15c8e442a276abc64736f6c63430008120033",
  "linkReferences": {},
  "deployedLinkReferences": {}
}