{"contracts/SSIDWithWallet.sol":{"Wallet":{"abi":[{"inputs":[{"internalType":"address","name":"_owner","type":"address"}],"stateMutability":"nonpayable","type":"constructor"},{"inputs":[],"name":"getOwner","outputs":[{"internalType":"address","name":"","type":"address"}],"stateMutability":"view","type":"function"},{"inputs":[{"internalType":"address","name":"to","type":"address"},{"internalType":"uint256","name":"amount","type":"uint256"},{"internalType":"contract IERC20","name":"token","type":"address"}],"name":"transfer","outputs":[],"stateMutability":"nonpayable","type":"function"}],"devdoc":{"kind":"dev","methods":{},"version":1},"evm":{"bytecode":{"linkReferences":{},"object":"608060405234801561001057600080fd5b50604051610ac0380380610ac0833981810160405281019061003291906100db565b806000806101000a81548173ffffffffffffffffffffffffffffffffffffffff021916908373ffffffffffffffffffffffffffffffffffffffff16021790555050610108565b600080fd5b600073ffffffffffffffffffffffffffffffffffffffff82169050919050565b60006100a88261007d565b9050919050565b6100b88161009d565b81146100c357600080fd5b50565b6000815190506100d5816100af565b92915050565b6000602082840312156100f1576100f0610078565b5b60006100ff848285016100c6565b91505092915050565b6109a9806101176000396000f3fe608060405234801561001057600080fd5b50600436106100365760003560e01c8063893d20e81461003b578063dbba0f0114610059575b600080fd5b610043610075565b60405161005091906104b7565b60405180910390f35b610073600480360381019061006e9190610577565b61009e565b005b60008060009054906101000a900473ffffffffffffffffffffffffffffffffffffffff16905090565b60008054906101000a900473ffffffffffffffffffffffffffffffffffffffff1673ffffffffffffffffffffffffffffffffffffffff163373ffffffffffffffffffffffffffffffffffffffff161461012c576040517f08c379a000000000000000000000000000000000000000000000000000000000815260040161012390610627565b60405180910390fd5b61015783838373ffffffffffffffffffffffffffffffffffffffff1661015c9092919063ffffffff16565b505050565b6101dd8363a9059cbb60e01b848460405160240161017b929190610656565b604051602081830303815290604052907bffffffffffffffffffffffffffffffffffffffffffffffffffffffff19166020820180517bffffffffffffffffffffffffffffffffffffffffffffffffffffffff83818316178352505050506101e2565b505050565b6000610244826040518060400160405280602081526020017f5361666545524332303a206c6f772d6c6576656c2063616c6c206661696c65648152508573ffffffffffffffffffffffffffffffffffffffff166102a99092919063ffffffff16565b90506000815111156102a4578080602001905181019061026491906106b7565b6102a3576040517f08c379a000000000000000000000000000000000000000000000000000000000815260040161029a90610756565b60405180910390fd5b5b505050565b60606102b884846000856102c1565b90509392505050565b606082471015610306576040517f08c379a00000000000000000000000000000000000000000000000000000000081526004016102fd906107e8565b60405180910390fd5b6000808673ffffffffffffffffffffffffffffffffffffffff16858760405161032f9190610879565b60006040518083038185875af1925050503d806000811461036c576040519150601f19603f3d011682016040523d82523d6000602084013e610371565b606091505b50915091506103828783838761038e565b92505050949350505050565b606083156103f05760008351036103e8576103a885610403565b6103e7576040517f08c379a00000000000000000000000000000000000000000000000000000000081526004016103de906108dc565b60405180910390fd5b5b8290506103fb565b6103fa8383610426565b5b949350505050565b6000808273ffffffffffffffffffffffffffffffffffffffff163b119050919050565b6000825111156104395781518083602001fd5b806040517f08c379a000000000000000000000000000000000000000000000000000000000815260040161046d9190610951565b60405180910390fd5b600073ffffffffffffffffffffffffffffffffffffffff82169050919050565b60006104a182610476565b9050919050565b6104b181610496565b82525050565b60006020820190506104cc60008301846104a8565b92915050565b600080fd5b6104e081610496565b81146104eb57600080fd5b50565b6000813590506104fd816104d7565b92915050565b6000819050919050565b61051681610503565b811461052157600080fd5b50565b6000813590506105338161050d565b92915050565b600061054482610496565b9050919050565b61055481610539565b811461055f57600080fd5b50565b6000813590506105718161054b565b92915050565b6000806000606084860312156105905761058f6104d2565b5b600061059e868287016104ee565b93505060206105af86828701610524565b92505060406105c086828701610562565b9150509250925092565b600082825260208201905092915050565b7f4f6e6c79206f776e65722063616e207472616e73666572000000000000000000600082015250565b60006106116017836105ca565b915061061c826105db565b602082019050919050565b6000602082019050818103600083015261064081610604565b9050919050565b61065081610503565b82525050565b600060408201905061066b60008301856104a8565b6106786020830184610647565b9392505050565b60008115159050919050565b6106948161067f565b811461069f57600080fd5b50565b6000815190506106b18161068b565b92915050565b6000602082840312156106cd576106cc6104d2565b5b60006106db848285016106a2565b91505092915050565b7f5361666545524332303a204552433230206f7065726174696f6e20646964206e60008201527f6f74207375636365656400000000000000000000000000000000000000000000602082015250565b6000610740602a836105ca565b915061074b826106e4565b604082019050919050565b6000602082019050818103600083015261076f81610733565b9050919050565b7f416464726573733a20696e73756666696369656e742062616c616e636520666f60008201527f722063616c6c0000000000000000000000000000000000000000000000000000602082015250565b60006107d26026836105ca565b91506107dd82610776565b604082019050919050565b60006020820190508181036000830152610801816107c5565b9050919050565b600081519050919050565b600081905092915050565b60005b8381101561083c578082015181840152602081019050610821565b60008484015250505050565b600061085382610808565b61085d8185610813565b935061086d81856020860161081e565b80840191505092915050565b60006108858284610848565b915081905092915050565b7f416464726573733a2063616c6c20746f206e6f6e2d636f6e7472616374000000600082015250565b60006108c6601d836105ca565b91506108d182610890565b602082019050919050565b600060208201905081810360008301526108f5816108b9565b9050919050565b600081519050919050565b6000601f19601f8301169050919050565b6000610923826108fc565b61092d81856105ca565b935061093d81856020860161081e565b61094681610907565b840191505092915050565b6000602082019050818103600083015261096b8184610918565b90509291505056fea264697066735822122035f92815476344f4f490bc949c278dd3a5817452e439ae86b15c8e442a276abc64736f6c63430008120033","opcodes":"PUSH1 0x80 PUSH1 0x40 MSTORE CALLVALUE DUP1 ISZERO PUSH2 0x10 JUMPI PUSH1 0x0 DUP1 REVERT JUMPDEST POP PUSH1 0x40 MLOAD PUSH2 0xAC0 CODESIZE SUB DUP1 PUSH2 0xAC0 DUP4 CODECOPY DUP2 DUP2 ADD PUSH1 0x40 MSTORE DUP2 ADD SWAP1 PUSH2 0x32 SWAP2 SWAP1 PUSH2 0xDB JUMP JUMPDEST DUP1 PUSH1 0x0 DUP1 PUSH2 0x100 EXP DUP2 SLOAD DUP2 PUSH20 0xFFFFFFFFFFFFFFFFFFFFFFFFFFFFFFFFFFFFFFFF MUL NOT AND SWAP1 DUP4 PUSH20 0xFFFFFFFFFFFFFFFFFFFFFFFFFFFFFFFFFFFFFFFF AND MUL OR SWAP1 SSTORE POP POP PUSH2 0x108 JUMP JUMPDEST PUSH1 0x0 DUP1 REVERT JUMPDEST PUSH1 0x0 PUSH20 0xFFFFFFFFFFFFFFFFFFFFFFFFFFFFFFFFFFFFFFFF DUP3 AND SWAP1 POP SWAP2 SWAP1 POP JUMP JUMPDEST PUSH1 0x0 PUSH2 0xA8 DUP3 PUSH2 0x7D JUMP JUMPDEST SWAP1 POP SWAP2 SWAP1 POP JUMP JUMPDEST PUSH2 0xB8 DUP2 PUSH2 0x9D JUMP JUMPDEST DUP2 EQ PUSH2 0xC3 JUMPI PUSH1 0x0 DUP1 REVERT JUMPDEST POP JUMP JUMPDEST PUSH1 0x0 DUP2 MLOAD SWAP1 POP PUSH2 0xD5 DUP2 PUSH2 0xAF JUMP JUMPDEST SWAP3 SWAP2 POP POP JUMP JUMPDEST PUSH1 0x0 PUSH1 0x20 DUP3 DUP5 SUB SLT ISZERO PUSH2 0xF1 JUMPI PUSH2 0xF0 PUSH2 0x78 JUMP JUMPDEST JUMPDEST PUSH1 0x0 PUSH2 0xFF DUP5 DUP3 DUP6 ADD PUSH2 0xC6 JUMP JUMPDEST SWAP2 POP POP SWAP3 SWAP2 POP POP JUMP JUMPDEST PUSH2 0x9A9 DUP1 PUSH2 0x117 PUSH1 0x0 CODECOPY PUSH1 0x0 RETURN INVALID PUSH1 0x80 PUSH1 0x40 MSTORE CALLVALUE DUP1 ISZERO PUSH2 0x10 JUMPI PUSH1 0x0 DUP1 REVERT JUMPDEST POP PUSH1 0x4 CALLDATASIZE LT PUSH2 0x36 JUMPI PUSH1 0x0 CALLDATALOAD PUSH1 0xE0 SHR DUP1 PUSH4 0x893D20E8 EQ PUSH2 0x3B JUMPI DUP1 PUSH4 0xDBBA0F01 EQ PUSH2 0x59 JUMPI JUMPDEST PUSH1 0x0 DUP1 REVERT JUMPDEST PUSH2 0x43 PUSH2 0x75 JUMP JUMPDEST PUSH1 0x40 MLOAD PUSH2 0x50 SWAP2 SWAP1 PUSH2 0x4B7 JUMP JUMPDEST PUSH1 0x40 MLOAD DUP1 SWAP2 SUB SWAP1 RETURN JUMPDEST PUSH2 0x73 PUSH1 0x4 DUP1 CALLDATASIZE SUB DUP2 ADD SWAP1 PUSH2 0x6E SWAP2 SWAP1 PUSH2 0x577 JUMP JUMPDEST PUSH2 0x9E JUMP JUMPDEST STOP JUMPDEST PUSH1 0x0 DUP1 PUSH1 0x0 SWAP1 SLOAD SWAP1 PUSH2 0x100 EXP SWAP1 DIV PUSH20 0xFFFFFFFFFFFFFFFFFFFFFFFFFFFFFFFFFFFFFFFF AND SWAP1 POP SWAP1 JUMP JUMPDEST PUSH1 0x0 DUP1 SLOAD SWAP1 PUSH2 0x100 EXP SWAP1 DIV PUSH20 0xFFFFFFFFFFFFFFFFFFFFFFFFFFFFFFFFFFFFFFFF AND PUSH20 0xFFFFFFFFFFFFFFFFFFFFFFFFFFFFFFFFFFFFFFFF AND CALLER PUSH20 0xFFFFFFFFFFFFFFFFFFFFFFFFFFFFFFFFFFFFFFFF AND EQ PUSH2 0x12C JUMPI PUSH1 0x40 MLOAD PUSH32 0x8C379A000000000000000000000000000000000000000000000000000000000 DUP2 MSTORE PUSH1 0x4 ADD PUSH2 0x123 SWAP1 PUSH2 0x627 JUMP JUMPDEST PUSH1 0x40 MLOAD DUP1 SWAP2 SUB SWAP1 REVERT JUMPDEST PUSH2 0x157 DUP4 DUP4 DUP4 PUSH20 0xFFFFFFFFFFFFFFFFFFFFFFFFFFFFFFFFFFFFFFFF AND PUSH2 0x15C SWAP1 SWAP3 SWAP2 SWAP1 PUSH4 0xFFFFFFFF AND JUMP JUMPDEST POP POP POP JUMP JUMPDEST PUSH2 0x1DD DUP4 PUSH4 0xA9059CBB PUSH1 0xE0 SHL DUP5 DUP5 PUSH1 0x40 MLOAD PUSH1 0x24 ADD PUSH2 0x17B SWAP3 SWAP2 SWAP1 PUSH2 0x656 JUMP JUMPDEST PUSH1 0x40 MLOAD PUSH1 0x20 DUP2 DUP4 SUB SUB DUP2 MSTORE SWAP1 PUSH1 0x40 MSTORE SWAP1 PUSH28 0xFFFFFFFFFFFFFFFFFFFFFFFFFFFFFFFFFFFFFFFFFFFFFFFFFFFFFFFF NOT AND PUSH1 0x20 DUP3 ADD DUP1 MLOAD PUSH28 0xFFFFFFFFFFFFFFFFFFFFFFFFFFFFFFFFFFFFFFFFFFFFFFFFFFFFFFFF DUP4 DUP2 DUP4 AND OR DUP4 MSTORE POP POP POP POP PUSH2 0x1E2 JUMP JUMPDEST POP POP POP JUMP JUMPDEST PUSH1 0x0 PUSH2 0x244 DUP3 PUSH1 0x40 MLOAD DUP1 PUSH1 0x40 ADD PUSH1 0x40 MSTORE DUP1 PUSH1 0x20 DUP2 MSTORE PUSH1 0x20 ADD PUSH32 0x5361666545524332303A206C6F772D6C6576656C2063616C6C206661696C6564 DUP2 MSTORE POP DUP6 PUSH20 0xFFFFFFFFFFFFFFFFFFFFFFFFFFFFFFFFFFFFFFFF AND PUSH2 0x2A9 SWAP1 SWAP3 SWAP2 SWAP1 PUSH4 0xFFFFFFFF AND JUMP JUMPDEST SWAP1 POP PUSH1 0x0 DUP2 MLOAD GT ISZERO PUSH2 0x2A4 JUMPI DUP1 DUP1 PUSH1 0x20 ADD SWAP1 MLOAD DUP2 ADD SWAP1 PUSH2 0x264 SWAP2 SWAP1 PUSH2 0x6B7 JUMP JUMPDEST PUSH2 0x2A3 JUMPI PUSH1 0x40 MLOAD PUSH32 0x8C379A000000000000000000000000000000000000000000000000000000000 DUP2 MSTORE PUSH1 0x4 ADD PUSH2 0x29A SWAP1 PUSH2 0x756 JUMP JUMPDEST PUSH1 0x40 MLOAD DUP1 SWAP2 SUB SWAP1 REVERT JUMPDEST JUMPDEST POP POP POP JUMP JUMPDEST PUSH1 0x60 PUSH2 0x2B8 DUP5 DUP5 PUSH1 0x0 DUP6 PUSH2 0x2C1 JUMP JUMPDEST SWAP1 POP SWAP4 SWAP3 POP POP POP JUMP JUMPDEST PUSH1 0x60 DUP3 SELFBALANCE LT ISZERO PUSH2 0x306 JUMPI PUSH1 0x40 MLOAD PUSH32 0x8C379A000000000000000000000000000000000000000000000000000000000 DUP2 MSTORE PUSH1 0x4 ADD PUSH2 0x2FD SWAP1 PUSH2 0x7E8 JUMP JUMPDEST PUSH1 0x40 MLOAD DUP1 SWAP2 SUB SWAP1 REVERT JUMPDEST PUSH1 0x0 DUP1 DUP7 PUSH20 0xFFFFFFFFFFFFFFFFFFFFFFFFFFFFFFFFFFFFFFFF AND DUP6 DUP8 PUSH1 0x40 MLOAD PUSH2 0x32F SWAP2 SWAP1 PUSH2 0x879 JUMP JUMPDEST PUSH1 0x0 PUSH1 0x40 MLOAD DUP1 DUP4 SUB DUP2 DUP6 DUP8 GAS CALL SWAP3 POP POP POP RETURNDATASIZE DUP1 PUSH1 0x0 DUP2 EQ PUSH2 0x36C JUMPI PUSH1 0x40 MLOAD SWAP2 POP PUSH1 0x1F NOT PUSH1 0x3F RETURNDATASIZE ADD AND DUP3 ADD PUSH1 0x40 MSTORE RETURNDATASIZE DUP3 MSTORE RETURNDATASIZE PUSH1 0x0 PUSH1 0x20 DUP5 ADD RETURNDATACOPY PUSH2 0x371 JUMP JUMPDEST PUSH1 0x60 SWAP2 POP JUMPDEST POP SWAP2 POP SWAP2 POP PUSH2 0x382 DUP8 DUP4 DUP4 DUP8 PUSH2 0x38E JUMP JUMPDEST SWAP3 POP POP POP SWAP5 SWAP4 POP POP POP POP JUMP JUMPDEST PUSH1 0x60 DUP4 ISZERO PUSH2 0x3F0 JUMPI PUSH1 0x0 DUP4 MLOAD SUB PUSH2 0x3E8 JUMPI PUSH2 0x3A8 DUP6 PUSH2 0x403 JUMP JUMPDEST PUSH2 0x3E7 JUMPI PUSH1 0x40 MLOAD PUSH32 0x8C379A000000000000000000000000000000000000000000000000000000000 DUP2 MSTORE PUSH1 0x4 ADD PUSH2 0x3DE SWAP1 PUSH2 0x8DC JUMP JUMPDEST PUSH1 0x40 MLOAD DUP1 SWAP2 SUB SWAP1 REVERT JUMPDEST JUMPDEST DUP3 SWAP1 POP PUSH2 0x3FB JUMP JUMPDEST PUSH2 0x3FA DUP4 DUP4 PUSH2 0x426 JUMP JUMPDEST JUMPDEST SWAP5 SWAP4 POP POP POP POP JUMP JUMPDEST PUSH1 0x0 DUP1 DUP3 PUSH20 0xFFFFFFFFFFFFFFFFFFFFFFFFFFFFFFFFFFFFFFFF AND EXTCODESIZE GT SWAP1 POP SWAP2 SWAP1 POP JUMP JUMPDEST PUSH1 0x0 DUP3 MLOAD GT ISZERO PUSH2 0x439 JUMPI DUP2 MLOAD DUP1 DUP4 PUSH1 0x20 ADD REVERT JUMPDEST DUP1 PUSH1 0x40 MLOAD PUSH32 0x8C379A000000000000000000000000000000000000000000000000000000000 DUP2 MSTORE PUSH1 0x4 ADD PUSH2 0x46D SWAP2 SWAP1 PUSH2 0x951 JUMP JUMPDEST PUSH1 0x40 MLOAD DUP1 SWAP2 SUB SWAP1 REVERT JUMPDEST PUSH1 0x0 PUSH20 0xFFFFFFFFFFFFFFFFFFFFFFFFFFFFFFFFFFFFFFFF DUP3 AND SWAP1 POP SWAP2 SWAP1 POP JUMP JUMPDEST PUSH1 0x0 PUSH2 0x4A1 DUP3 PUSH2 0x476 JUMP JUMPDEST SWAP1 POP SWAP2 SWAP1 POP JUMP JUMPDEST PUSH2 0x4B1 DUP2 PUSH2 0x496 JUMP JUMPDEST DUP3 MSTORE POP POP JUMP JUMPDEST PUSH1 0x0 PUSH1 0x20 DUP3 ADD SWAP1 POP PUSH2 0x4CC PUSH1 0x0 DUP4 ADD DUP5 PUSH2 0x4A8 JUMP JUMPDEST SWAP3 SWAP2 POP POP JUMP JUMPDEST PUSH1 0x0 DUP1 REVERT JUMPDEST PUSH2 0x4E0 DUP2 PUSH2 0x496 JUMP JUMPDEST DUP2 EQ PUSH2 0x4EB JUMPI PUSH1 0x0 DUP1 REVERT JUMPDEST POP JUMP JUMPDEST PUSH1 0x0 DUP2 CALLDATALOAD SWAP1 POP PUSH2 0x4FD DUP2 PUSH2 0x4D7 JUMP JUMPDEST SWAP3 SWAP2 POP POP JUMP JUMPDEST PUSH1 0x0 DUP2 SWAP1 POP SWAP2 SWAP1 POP JUMP JUMPDEST PUSH2 0x516 DUP2 PUSH2 0x503 JUMP JUMPDEST DUP2 EQ PUSH2 0x521 JUMPI PUSH1 0x0 DUP1 REVERT JUMPDEST POP JUMP JUMPDEST PUSH1 0x0 DUP2 CALLDATALOAD SWAP1 POP PUSH2 0x533 DUP2 PUSH2 0x50D JUMP JUMPDEST SWAP3 SWAP2 POP POP JUMP JUMPDEST PUSH1 0x0 PUSH2 0x544 DUP3 PUSH2 0x496 JUMP JUMPDEST SWAP1 POP SWAP2 SWAP1 POP JUMP JUMPDEST PUSH2 0x554 DUP2 PUSH2 0x539 JUMP JUMPDEST DUP2 EQ PUSH2 0x55F JUMPI PUSH1 0x0 DUP1 REVERT JUMPDEST POP JUMP JUMPDEST PUSH1 0x0 DUP2 CALLDATALOAD SWAP1 POP PUSH2 0x571 DUP2 PUSH2 0x54B JUMP JUMPDEST SWAP3 SWAP2 POP POP JUMP JUMPDEST PUSH1 0x0 DUP1 PUSH1 0x0 PUSH1 0x60 DUP5 DUP7 SUB SLT ISZERO PUSH2 0x590 JUMPI PUSH2 0x58F PUSH2 0x4D2 JUMP JUMPDEST JUMPDEST PUSH1 0x0 PUSH2 0x59E DUP7 DUP3 DUP8 ADD PUSH2 0x4EE JUMP JUMPDEST SWAP4 POP POP PUSH1 0x20 PUSH2 0x5AF DUP7 DUP3 DUP8 ADD PUSH2 0x524 JUMP JUMPDEST SWAP3 POP POP PUSH1 0x40 PUSH2 0x5C0 DUP7 DUP3 DUP8 ADD PUSH2 0x562 JUMP JUMPDEST SWAP2 POP POP SWAP3 POP SWAP3 POP SWAP3 JUMP JUMPDEST PUSH1 0x0 DUP3 DUP3 MSTORE PUSH1 0x20 DUP3 ADD SWAP1 POP SWAP3 SWAP2 POP POP JUMP JUMPDEST PUSH32 0x4F6E6C79206F776E65722063616E207472616E73666572000000000000000000 PUSH1 0x0 DUP3 ADD MSTORE POP JUMP JUMPDEST PUSH1 0x0 PUSH2 0x611 PUSH1 0x17 DUP4 PUSH2 0x5CA JUMP JUMPDEST SWAP2 POP PUSH2 0x61C DUP3 PUSH2 0x5DB JUMP JUMPDEST PUSH1 0x20 DUP3 ADD SWAP1 POP SWAP2 SWAP1 POP JUMP JUMPDEST PUSH1 0x0 PUSH1 0x20 DUP3 ADD SWAP1 POP DUP2 DUP2 SUB PUSH1 0x0 DUP4 ADD MSTORE PUSH2 0x640 DUP2 PUSH2 0x604 JUMP JUMPDEST SWAP1 POP SWAP2 SWAP1 POP JUMP JUMPDEST PUSH2 0x650 DUP2 PUSH2 0x503 JUMP JUMPDEST DUP3 MSTORE POP POP JUMP JUMPDEST PUSH1 0x0 PUSH1 0x40 DUP3 ADD SWAP1 POP PUSH2 0x66B PUSH1 0x0 DUP4 ADD DUP6 PUSH2 0x4A8 JUMP JUMPDEST PUSH2 0x678 PUSH1 0x20 DUP4 ADD DUP5 PUSH2 0x647 JUMP JUMPDEST SWAP4 SWAP3 POP POP POP JUMP JUMPDEST PUSH1 0x0 DUP2 ISZERO ISZERO SWAP1 POP SWAP2 SWAP1 POP JUMP JUMPDEST PUSH2 0x694 DUP2 PUSH2 0x67F JUMP JUMPDEST DUP2 EQ PUSH2 0x69F JUMPI PUSH1 0x0 DUP1 REVERT JUMPDEST POP JUMP JUMPDEST PUSH1 0x0 DUP2 MLOAD SWAP1 POP PUSH2 0x6B1 DUP2 PUSH2 0x68B JUMP JUMPDEST SWAP3 SWAP2 POP POP JUMP JUMPDEST PUSH1 0x0 PUSH1 0x20 DUP3 DUP5 SUB SLT ISZERO PUSH2 0x6CD JUMPI PUSH2 0x6CC PUSH2 0x4D2 JUMP JUMPDEST JUMPDEST PUSH1 0x0 PUSH2 0x6DB DUP5 DUP3 DUP6 ADD PUSH2 0x6A2 JUMP JUMPDEST SWAP2 POP POP SWAP3 SWAP2 POP POP JUMP JUMPDEST PUSH32 0x5361666545524332303A204552433230206F7065726174696F6E20646964206E PUSH1 0x0 DUP3 ADD MSTORE PUSH32 0x6F74207375636365656400000000000000000000000000000000000000000000 PUSH1 0x20 DUP3 ADD MSTORE POP JUMP JUMPDEST PUSH1 0x0 PUSH2 0x740 PUSH1 0x2A DUP4 PUSH2 0x5CA JUMP JUMPDEST SWAP2 POP PUSH2 0x74B DUP3 PUSH2 0x6E4 JUMP JUMPDEST PUSH1 0x40 DUP3 ADD SWAP1 POP SWAP2 SWAP1 POP JUMP JUMPDEST PUSH1 0x0 PUSH1 0x20 DUP3 ADD SWAP1 POP DUP2 DUP2 SUB PUSH1 0x0 DUP4 ADD MSTORE PUSH2 0x76F DUP2 PUSH2 0x733 JUMP JUMPDEST SWAP1 POP SWAP2 SWAP1 POP JUMP JUMPDEST PUSH32 0x416464726573733A20696E73756666696369656E742062616C616E636520666F PUSH1 0x0 DUP3 ADD MSTORE PUSH32 0x722063616C6C0000000000000000000000000000000000000000000000000000 PUSH1 0x20 DUP3 ADD MSTORE POP JUMP JUMPDEST PUSH1 0x0 PUSH2 0x7D2 PUSH1 0x26 DUP4 PUSH2 0x5CA JUMP JUMPDEST SWAP2 POP PUSH2 0x7DD DUP3 PUSH2 0x776 JUMP JUMPDEST PUSH1 0x40 DUP3 ADD SWAP1 POP SWAP2 SWAP1 POP JUMP JUMPDEST PUSH1 0x0 PUSH1 0x20 DUP3 ADD SWAP1 POP DUP2 DUP2 SUB PUSH1 0x0 DUP4 ADD MSTORE PUSH2 0x801 DUP2 PUSH2 0x7C5 JUMP JUMPDEST SWAP1 POP SWAP2 SWAP1 POP JUMP JUMPDEST PUSH1 0x0 DUP2 MLOAD SWAP1 POP SWAP2 SWAP1 POP JUMP JUMPDEST PUSH1 0x0 DUP2 SWAP1 POP SWAP3 SWAP2 POP POP JUMP JUMPDEST PUSH1 0x0 JUMPDEST DUP4 DUP2 LT ISZERO PUSH2 0x83C JUMPI DUP1 DUP3 ADD MLOAD DUP2 DUP5 ADD MSTORE PUSH1 0x20 DUP2 ADD SWAP1 POP PUSH2 0x821 JUMP JUMPDEST PUSH1 0x0 DUP5 DUP5 ADD MSTORE POP POP POP POP JUMP JUMPDEST PUSH1 0x0 PUSH2 0x853 DUP3 PUSH2 0x808 JUMP JUMPDEST PUSH2 0x85D DUP2 DUP6 PUSH2 0x813 JUMP JUMPDEST SWAP4 POP PUSH2 0x86D DUP2 DUP6 PUSH1 0x20 DUP7 ADD PUSH2 0x81E JUMP JUMPDEST DUP1 DUP5 ADD SWAP2 POP POP SWAP3 SWAP2 POP POP JUMP JUMPDEST PUSH1 0x0 PUSH2 0x885 DUP3 DUP5 PUSH2 0x848 JUMP JUMPDEST SWAP2 POP DUP2 SWAP1 POP SWAP3 SWAP2 POP POP JUMP JUMPDEST PUSH32 0x416464726573733A2063616C6C20746F206E6F6E2D636F6E7472616374000000 PUSH1 0x0 DUP3 ADD MSTORE POP JUMP JUMPDEST PUSH1 0x0 PUSH2 0x8C6 PUSH1 0x1D DUP4 PUSH2 0x5CA JUMP JUMPDEST SWAP2 POP PUSH2 0x8D1 DUP3 PUSH2 0x890 JUMP JUMPDEST PUSH1 0x20 DUP3 ADD SWAP1 POP SWAP2 SWAP1 POP JUMP JUMPDEST PUSH1 0x0 PUSH1 0x20 DUP3 ADD SWAP1 POP DUP2 DUP2 SUB PUSH1 0x0 DUP4 ADD MSTORE PUSH2 0x8F5 DUP2 PUSH2 0x8B9 JUMP JUMPDEST SWAP1 POP SWAP2 SWAP1 POP JUMP JUMPDEST PUSH1 0x0 DUP2 MLOAD SWAP1 POP SWAP2 SWAP1 POP JUMP JUMPDEST PUSH1 0x0 PUSH1 0x1F NOT PUSH1 0x1F DUP4 ADD AND SWAP1 POP SWAP2 SWAP1 POP JUMP JUMPDEST PUSH1 0x0 PUSH2 0x923 DUP3 PUSH2 0x8FC JUMP JUMPDEST PUSH2 0x92D DUP2 DUP6 PUSH2 0x5CA JUMP JUMPDEST SWAP4 POP PUSH2 0x93D DUP2 DUP6 PUSH1 0x20 DUP7 ADD PUSH2 0x81E JUMP JUMPDEST PUSH2 0x946 DUP2 PUSH2 0x907 JUMP JUMPDEST DUP5 ADD SWAP2 POP POP SWAP3 SWAP2 POP POP JUMP JUMPDEST PUSH1 0x0 PUSH1 0x20 DUP3 ADD SWAP1 POP DUP2 DUP2 SUB PUSH1 0x0 DUP4 ADD MSTORE PUSH2 0x96B DUP2 DUP5 PUSH2 0x918 JUMP JUMPDEST SWAP1 POP SWAP3 SWAP2 POP POP JUMP INVALID LOG2 PUSH5 0x6970667358 0x22 SLT KECCAK256 CALLDATALOAD 0xF9 0x28 ISZERO SELFBALANCE PUSH4 0x44F4F490 0xBC SWAP5 SWAP13 0x27 DUP14 0xD3 0xA5 DUP2 PUSH21 0x52E439AE86B15C8E442A276ABC64736F6C63430008 SLT STOP CALLER "},"gasEstimates":{"creation":{"codeDepositCost":"494600","executionCost":"infinite","totalCost":"infinite"},"external":{"getOwner()":"2500","transfer(address,uint256,address)":"infinite"}},"methodIdentifiers":{"getOwner()":"893d20e8","transfer(address,uint256,address)":"dbba0f01"}},"storageLayout":{"storage":[{"astId":966,"contract":"contracts/SSIDWithWallet.sol:Wallet","label":"owner","offset":0,"slot":"0","type":"t_address"}],"types":{"t_address":{"encoding":"inplace","label":"address","numberOfBytes":"20"}}},"userdoc":{"kind":"user","methods":{},"version":1}}}}