{
  "address": "0x5FbDB2315678afecb367f032d93F642f64180aa3",
  "abi": [
    {
      "anonymous": false,
      "inputs": [
        {
          "indexed": true,
          "internalType": "uint256",
          "name": "certificationID",
          "type": "uint256"
        },
        {
          "indexed": true,
          "internalType": "uint256",
          "name": "identityID",
          "type": "uint256"
        }
      ],
      "name": "CertificationIssued",
      "type": "event"
    },
    {
      "anonymous": false,
      "inputs": [
        {
          "indexed": true,
          "internalType": "address",
          "name": "owner",
          "type": "address"
        },
        {
          "indexed": false,
          "internalType": "uint256",
          "name": "id",
          "type": "uint256"
        }
      ],
      "name": "IdentityCreated",
      "type": "event"
    },
    {
      "inputs": [
        {
          "internalType": "string",
          "name": "name",
          "type": "string"
        },
        {
          "internalType": "string",
          "name": "email",
          "type": "string"
        },
        {
          "internalType": "uint256",
          "name": "dob",
          "type": "uint256"
        }
      ],
      "name": "createIdentity",
      "outputs": [],
      "stateMutability": "nonpayable",
      "type": "function"
    },
    {
      "inputs": [
        {
          "internalType": "uint256",
          "name": "providedId",
          "type": "uint256"
        }
      ],
      "name": "getIdentity",
      "outputs": [
        {
          "components": [
            {
              "internalType": "uint256",
              "name": "id",
              "type": "uint256"
            },
            {
              "internalType": "string",
              "name": "name",
              "type": "string"
            },
            {
              "internalType": "string",
              "name": "email",
              "type": "string"
            },
            {
              "internalType": "uint256",
              "name": "dob",
              "type": "uint256"
            },
            {
              "internalType": "address",
              "name": "wallet",
              "type": "address"
            },
            {
              "internalType": "uint256[]",
              "name": "certificationIDs",
              "type": "uint256[]"
            }
          ],
          "internalType": "struct SSIDWithWallet.Identity",
          "name": "",
          "type": "tuple"
        }
      ],
      "stateMutability": "view",
      "type": "function"
    },
    {
      "inputs": [
        {
          "internalType": "uint256",
          "name": "identityID",
          "type": "uint256"
        },
        {
          "internalType": "string",
          "name": "name",
          "type": "string"
        },
        {
          "internalType": "uint256",
          "name": "issueDate",
          "type": "uint256"
        },
        {
          "internalType": "bool",
          "name": "verified",
          "type": "bool"
        }
      ],
      "name": "issueCertification",
      "outputs": [],
      "stateMutability": "nonpayable",
      "type": "function"
    },
    {
      "inputs": [
        {
          "internalType": "uint256",
          "name": "certificationID",
          "type": "uint256"
        }
      ],
      "name": "verifyCertification",
      "outputs": [
        {
          "internalType": "bool",
          "name": "",
          "type": "bool"
        }
      ],
      "stateMutability": "view",
      "type": "function"
    }
  ],
  "transactionHash": "0xc78dd50cb66b03fe8d71b54aa6b63f4fbc9db455446c55430ee564127ab05144",
  "args": [],
  "numDeployments": 1,
  "solcInputHash": "13127bc0e51da0775e717ab18dcd46ad",
  "bytecode": "0x608060405234801561001057600080fd5b50611cf9806100206000396000f3fe60806040523480156200001157600080fd5b5060043610620000525760003560e01c8063584f09b0146200005757806385e3f05814620000775780638ef761eb14620000ad5780639f06c39514620000cd575b600080fd5b6200007560048036038101906200006f919062000944565b62000103565b005b6200009560048036038101906200008f9190620009de565b62000254565b604051620000a4919062000c4f565b60405180910390f35b620000cb6004803603810190620000c5919062000cb0565b620004f5565b005b620000eb6004803603810190620000e59190620009de565b62000640565b604051620000fa919062000d52565b60405180910390f35b60008060003373ffffffffffffffffffffffffffffffffffffffff1673ffffffffffffffffffffffffffffffffffffffff16815260200190815260200160002090504281600001819055508381600101908162000161919062000fa5565b508281600201908162000175919062000fa5565b50818160030181905550336040516200018e9062000739565b6200019a91906200109d565b604051809103906000f080158015620001b7573d6000803e3d6000fd5b508160040160006101000a81548173ffffffffffffffffffffffffffffffffffffffff021916908373ffffffffffffffffffffffffffffffffffffffff1602179055503373ffffffffffffffffffffffffffffffffffffffff167fe8d47b56e8cdfa95f871b19d4f50a857217c44a95502b0811a350fec1500dd678260000154604051620002469190620010cb565b60405180910390a250505050565b6200025e62000747565b60008060003373ffffffffffffffffffffffffffffffffffffffff1673ffffffffffffffffffffffffffffffffffffffff1681526020019081526020016000206040518060c001604052908160008201548152602001600182018054620002c59062000d9e565b80601f0160208091040260200160405190810160405280929190818152602001828054620002f39062000d9e565b8015620003445780601f10620003185761010080835404028352916020019162000344565b820191906000526020600020905b8154815290600101906020018083116200032657829003601f168201915b505050505081526020016002820180546200035f9062000d9e565b80601f01602080910402602001604051908101604052809291908181526020018280546200038d9062000d9e565b8015620003de5780601f10620003b257610100808354040283529160200191620003de565b820191906000526020600020905b815481529060010190602001808311620003c057829003601f168201915b50505050508152602001600382015481526020016004820160009054906101000a900473ffffffffffffffffffffffffffffffffffffffff1673ffffffffffffffffffffffffffffffffffffffff1673ffffffffffffffffffffffffffffffffffffffff168152602001600582018054806020026020016040519081016040528092919081815260200182805480156200049857602002820191906000526020600020905b81548152602001906001019080831162000483575b505050505081525050905082816000015114620004ec576040517f08c379a0000000000000000000000000000000000000000000000000000000008152600401620004e3906200116f565b60405180910390fd5b80915050919050565b60008060003373ffffffffffffffffffffffffffffffffffffffff1673ffffffffffffffffffffffffffffffffffffffff16815260200190815260200160002090508481600001541462000580576040517f08c379a00000000000000000000000000000000000000000000000000000000081526004016200057790620011e1565b60405180910390fd5b6000429050600060016000838152602001908152602001600020905081816000018190555085816001019081620005b8919062000fa5565b50848160020181905550838160030160006101000a81548160ff0219169083151502179055508260050182908060018154018082558091505060019003906000526020600020016000909190919091505586827fab19da658c28f4ed25fc505084caa0491e995cc05e8f0972e1a239620dfaafba60405160405180910390a350505050505050565b60008060016000848152602001908152602001600020604051806080016040529081600082015481526020016001820180546200067d9062000d9e565b80601f0160208091040260200160405190810160405280929190818152602001828054620006ab9062000d9e565b8015620006fc5780601f10620006d057610100808354040283529160200191620006fc565b820191906000526020600020905b815481529060010190602001808311620006de57829003601f168201915b50505050508152602001600282015481526020016003820160009054906101000a900460ff16151515158152505090508060600151915050919050565b610ac0806200120483390190565b6040518060c0016040528060008152602001606081526020016060815260200160008152602001600073ffffffffffffffffffffffffffffffffffffffff168152602001606081525090565b6000604051905090565b600080fd5b600080fd5b600080fd5b600080fd5b6000601f19601f8301169050919050565b7f4e487b7100000000000000000000000000000000000000000000000000000000600052604160045260246000fd5b620007fc82620007b1565b810181811067ffffffffffffffff821117156200081e576200081d620007c2565b5b80604052505050565b60006200083362000793565b9050620008418282620007f1565b919050565b600067ffffffffffffffff821115620008645762000863620007c2565b5b6200086f82620007b1565b9050602081019050919050565b82818337600083830152505050565b6000620008a26200089c8462000846565b62000827565b905082815260208101848484011115620008c157620008c0620007ac565b5b620008ce8482856200087c565b509392505050565b600082601f830112620008ee57620008ed620007a7565b5b8135620009008482602086016200088b565b91505092915050565b6000819050919050565b6200091e8162000909565b81146200092a57600080fd5b50565b6000813590506200093e8162000913565b92915050565b60008060006060848603121562000960576200095f6200079d565b5b600084013567ffffffffffffffff811115620009815762000980620007a2565b5b6200098f86828701620008d6565b935050602084013567ffffffffffffffff811115620009b357620009b2620007a2565b5b620009c186828701620008d6565b9250506040620009d4868287016200092d565b9150509250925092565b600060208284031215620009f757620009f66200079d565b5b600062000a07848285016200092d565b91505092915050565b62000a1b8162000909565b82525050565b600081519050919050565b600082825260208201905092915050565b60005b8381101562000a5d57808201518184015260208101905062000a40565b60008484015250505050565b600062000a768262000a21565b62000a82818562000a2c565b935062000a9481856020860162000a3d565b62000a9f81620007b1565b840191505092915050565b600073ffffffffffffffffffffffffffffffffffffffff82169050919050565b600062000ad78262000aaa565b9050919050565b62000ae98162000aca565b82525050565b600081519050919050565b600082825260208201905092915050565b6000819050602082019050919050565b600062000b29838362000a10565b60208301905092915050565b6000602082019050919050565b600062000b4f8262000aef565b62000b5b818562000afa565b935062000b688362000b0b565b8060005b8381101562000b9f57815162000b83888262000b1b565b975062000b908362000b35565b92505060018101905062000b6c565b5085935050505092915050565b600060c08301600083015162000bc6600086018262000a10565b506020830151848203602086015262000be0828262000a69565b9150506040830151848203604086015262000bfc828262000a69565b915050606083015162000c13606086018262000a10565b50608083015162000c28608086018262000ade565b5060a083015184820360a086015262000c42828262000b42565b9150508091505092915050565b6000602082019050818103600083015262000c6b818462000bac565b905092915050565b60008115159050919050565b62000c8a8162000c73565b811462000c9657600080fd5b50565b60008135905062000caa8162000c7f565b92915050565b6000806000806080858703121562000ccd5762000ccc6200079d565b5b600062000cdd878288016200092d565b945050602085013567ffffffffffffffff81111562000d015762000d00620007a2565b5b62000d0f87828801620008d6565b935050604062000d22878288016200092d565b925050606062000d358782880162000c99565b91505092959194509250565b62000d4c8162000c73565b82525050565b600060208201905062000d69600083018462000d41565b92915050565b7f4e487b7100000000000000000000000000000000000000000000000000000000600052602260045260246000fd5b6000600282049050600182168062000db757607f821691505b60208210810362000dcd5762000dcc62000d6f565b5b50919050565b60008190508160005260206000209050919050565b60006020601f8301049050919050565b600082821b905092915050565b60006008830262000e377fffffffffffffffffffffffffffffffffffffffffffffffffffffffffffffffff8262000df8565b62000e43868362000df8565b95508019841693508086168417925050509392505050565b6000819050919050565b600062000e8662000e8062000e7a8462000909565b62000e5b565b62000909565b9050919050565b6000819050919050565b62000ea28362000e65565b62000eba62000eb18262000e8d565b84845462000e05565b825550505050565b600090565b62000ed162000ec2565b62000ede81848462000e97565b505050565b5b8181101562000f065762000efa60008262000ec7565b60018101905062000ee4565b5050565b601f82111562000f555762000f1f8162000dd3565b62000f2a8462000de8565b8101602085101562000f3a578190505b62000f5262000f498562000de8565b83018262000ee3565b50505b505050565b600082821c905092915050565b600062000f7a6000198460080262000f5a565b1980831691505092915050565b600062000f95838362000f67565b9150826002028217905092915050565b62000fb08262000a21565b67ffffffffffffffff81111562000fcc5762000fcb620007c2565b5b62000fd8825462000d9e565b62000fe582828562000f0a565b600060209050601f8311600181146200101d576000841562001008578287015190505b62001014858262000f87565b86555062001084565b601f1984166200102d8662000dd3565b60005b82811015620010575784890151825560018201915060208501945060208101905062001030565b8683101562001077578489015162001073601f89168262000f67565b8355505b6001600288020188555050505b505050505050565b620010978162000aca565b82525050565b6000602082019050620010b460008301846200108c565b92915050565b620010c58162000909565b82525050565b6000602082019050620010e26000830184620010ba565b92915050565b600082825260208201905092915050565b7f50726f7669646564205353494420646f6573206e6f74206d617463682074686560008201527f2073746f72656420535349440000000000000000000000000000000000000000602082015250565b600062001157602c83620010e8565b91506200116482620010f9565b604082019050919050565b600060208201905081810360008301526200118a8162001148565b9050919050565b7f496e76616c6964204964656e7469747900000000000000000000000000000000600082015250565b6000620011c9601083620010e8565b9150620011d68262001191565b602082019050919050565b60006020820190508181036000830152620011fc81620011ba565b905091905056fe608060405234801561001057600080fd5b50604051610ac0380380610ac0833981810160405281019061003291906100db565b806000806101000a81548173ffffffffffffffffffffffffffffffffffffffff021916908373ffffffffffffffffffffffffffffffffffffffff16021790555050610108565b600080fd5b600073ffffffffffffffffffffffffffffffffffffffff82169050919050565b60006100a88261007d565b9050919050565b6100b88161009d565b81146100c357600080fd5b50565b6000815190506100d5816100af565b92915050565b6000602082840312156100f1576100f0610078565b5b60006100ff848285016100c6565b91505092915050565b6109a9806101176000396000f3fe608060405234801561001057600080fd5b50600436106100365760003560e01c8063893d20e81461003b578063dbba0f0114610059575b600080fd5b610043610075565b60405161005091906104b7565b60405180910390f35b610073600480360381019061006e9190610577565b61009e565b005b60008060009054906101000a900473ffffffffffffffffffffffffffffffffffffffff16905090565b60008054906101000a900473ffffffffffffffffffffffffffffffffffffffff1673ffffffffffffffffffffffffffffffffffffffff163373ffffffffffffffffffffffffffffffffffffffff161461012c576040517f08c379a000000000000000000000000000000000000000000000000000000000815260040161012390610627565b60405180910390fd5b61015783838373ffffffffffffffffffffffffffffffffffffffff1661015c9092919063ffffffff16565b505050565b6101dd8363a9059cbb60e01b848460405160240161017b929190610656565b604051602081830303815290604052907bffffffffffffffffffffffffffffffffffffffffffffffffffffffff19166020820180517bffffffffffffffffffffffffffffffffffffffffffffffffffffffff83818316178352505050506101e2565b505050565b6000610244826040518060400160405280602081526020017f5361666545524332303a206c6f772d6c6576656c2063616c6c206661696c65648152508573ffffffffffffffffffffffffffffffffffffffff166102a99092919063ffffffff16565b90506000815111156102a4578080602001905181019061026491906106b7565b6102a3576040517f08c379a000000000000000000000000000000000000000000000000000000000815260040161029a90610756565b60405180910390fd5b5b505050565b60606102b884846000856102c1565b90509392505050565b606082471015610306576040517f08c379a00000000000000000000000000000000000000000000000000000000081526004016102fd906107e8565b60405180910390fd5b6000808673ffffffffffffffffffffffffffffffffffffffff16858760405161032f9190610879565b60006040518083038185875af1925050503d806000811461036c576040519150601f19603f3d011682016040523d82523d6000602084013e610371565b606091505b50915091506103828783838761038e565b92505050949350505050565b606083156103f05760008351036103e8576103a885610403565b6103e7576040517f08c379a00000000000000000000000000000000000000000000000000000000081526004016103de906108dc565b60405180910390fd5b5b8290506103fb565b6103fa8383610426565b5b949350505050565b6000808273ffffffffffffffffffffffffffffffffffffffff163b119050919050565b6000825111156104395781518083602001fd5b806040517f08c379a000000000000000000000000000000000000000000000000000000000815260040161046d9190610951565b60405180910390fd5b600073ffffffffffffffffffffffffffffffffffffffff82169050919050565b60006104a182610476565b9050919050565b6104b181610496565b82525050565b60006020820190506104cc60008301846104a8565b92915050565b600080fd5b6104e081610496565b81146104eb57600080fd5b50565b6000813590506104fd816104d7565b92915050565b6000819050919050565b61051681610503565b811461052157600080fd5b50565b6000813590506105338161050d565b92915050565b600061054482610496565b9050919050565b61055481610539565b811461055f57600080fd5b50565b6000813590506105718161054b565b92915050565b6000806000606084860312156105905761058f6104d2565b5b600061059e868287016104ee565b93505060206105af86828701610524565b92505060406105c086828701610562565b9150509250925092565b600082825260208201905092915050565b7f4f6e6c79206f776e65722063616e207472616e73666572000000000000000000600082015250565b60006106116017836105ca565b915061061c826105db565b602082019050919050565b6000602082019050818103600083015261064081610604565b9050919050565b61065081610503565b82525050565b600060408201905061066b60008301856104a8565b6106786020830184610647565b9392505050565b60008115159050919050565b6106948161067f565b811461069f57600080fd5b50565b6000815190506106b18161068b565b92915050565b6000602082840312156106cd576106cc6104d2565b5b60006106db848285016106a2565b91505092915050565b7f5361666545524332303a204552433230206f7065726174696f6e20646964206e60008201527f6f74207375636365656400000000000000000000000000000000000000000000602082015250565b6000610740602a836105ca565b915061074b826106e4565b604082019050919050565b6000602082019050818103600083015261076f81610733565b9050919050565b7f416464726573733a20696e73756666696369656e742062616c616e636520666f60008201527f722063616c6c0000000000000000000000000000000000000000000000000000602082015250565b60006107d26026836105ca565b91506107dd82610776565b604082019050919050565b60006020820190508181036000830152610801816107c5565b9050919050565b600081519050919050565b600081905092915050565b60005b8381101561083c578082015181840152602081019050610821565b60008484015250505050565b600061085382610808565b61085d8185610813565b935061086d81856020860161081e565b80840191505092915050565b60006108858284610848565b915081905092915050565b7f416464726573733a2063616c6c20746f206e6f6e2d636f6e7472616374000000600082015250565b60006108c6601d836105ca565b91506108d182610890565b602082019050919050565b600060208201905081810360008301526108f5816108b9565b9050919050565b600081519050919050565b6000601f19601f8301169050919050565b6000610923826108fc565b61092d81856105ca565b935061093d81856020860161081e565b61094681610907565b840191505092915050565b6000602082019050818103600083015261096b8184610918565b90509291505056fea264697066735822122035f92815476344f4f490bc949c278dd3a5817452e439ae86b15c8e442a276abc64736f6c63430008120033a2646970667358221220db2b7cbf30ffddb940e0d63ed165fb726ca3ff29661ea5537c74297aa9220ffa64736f6c63430008120033",
  "devdoc": {
    "kind": "dev",
    "methods": {},
    "version": 1
  },
  "userdoc": {
    "kind": "user",
    "methods": {},
    "version": 1
  },
  "storageLayout": {
    "storage": [
      {
        "astId": 756,
        "contract": "contracts/SSIDWithWallet.sol:SSIDWithWallet",
        "label": "identities",
        "offset": 0,
        "slot": "0",
        "type": "t_mapping(t_address,t_struct(Identity)742_storage)"
      },
      {
        "astId": 761,
        "contract": "contracts/SSIDWithWallet.sol:SSIDWithWallet",
        "label": "certifications",
        "offset": 0,
        "slot": "1",
        "type": "t_mapping(t_uint256,t_struct(Certification)751_storage)"
      }
    ],
    "types": {
      "t_address": {
        "encoding": "inplace",
        "label": "address",
        "numberOfBytes": "20"
      },
      "t_array(t_uint256)dyn_storage": {
        "base": "t_uint256",
        "encoding": "dynamic_array",
        "label": "uint256[]",
        "numberOfBytes": "32"
      },
      "t_bool": {
        "encoding": "inplace",
        "label": "bool",
        "numberOfBytes": "1"
      },
      "t_mapping(t_address,t_struct(Identity)742_storage)": {
        "encoding": "mapping",
        "key": "t_address",
        "label": "mapping(address => struct SSIDWithWallet.Identity)",
        "numberOfBytes": "32",
        "value": "t_struct(Identity)742_storage"
      },
      "t_mapping(t_uint256,t_struct(Certification)751_storage)": {
        "encoding": "mapping",
        "key": "t_uint256",
        "label": "mapping(uint256 => struct SSIDWithWallet.Certification)",
        "numberOfBytes": "32",
        "value": "t_struct(Certification)751_storage"
      },
      "t_string_storage": {
        "encoding": "bytes",
        "label": "string",
        "numberOfBytes": "32"
      },
      "t_struct(Certification)751_storage": {
        "encoding": "inplace",
        "label": "struct SSIDWithWallet.Certification",
        "members": [
          {
            "astId": 744,
            "contract": "contracts/SSIDWithWallet.sol:SSIDWithWallet",
            "label": "id",
            "offset": 0,
            "slot": "0",
            "type": "t_uint256"
          },
          {
            "astId": 746,
            "contract": "contracts/SSIDWithWallet.sol:SSIDWithWallet",
            "label": "name",
            "offset": 0,
            "slot": "1",
            "type": "t_string_storage"
          },
          {
            "astId": 748,
            "contract": "contracts/SSIDWithWallet.sol:SSIDWithWallet",
            "label": "issueDate",
            "offset": 0,
            "slot": "2",
            "type": "t_uint256"
          },
          {
            "astId": 750,
            "contract": "contracts/SSIDWithWallet.sol:SSIDWithWallet",
            "label": "verified",
            "offset": 0,
            "slot": "3",
            "type": "t_bool"
          }
        ],
        "numberOfBytes": "128"
      },
      "t_struct(Identity)742_storage": {
        "encoding": "inplace",
        "label": "struct SSIDWithWallet.Identity",
        "members": [
          {
            "astId": 730,
            "contract": "contracts/SSIDWithWallet.sol:SSIDWithWallet",
            "label": "id",
            "offset": 0,
            "slot": "0",
            "type": "t_uint256"
          },
          {
            "astId": 732,
            "contract": "contracts/SSIDWithWallet.sol:SSIDWithWallet",
            "label": "name",
            "offset": 0,
            "slot": "1",
            "type": "t_string_storage"
          },
          {
            "astId": 734,
            "contract": "contracts/SSIDWithWallet.sol:SSIDWithWallet",
            "label": "email",
            "offset": 0,
            "slot": "2",
            "type": "t_string_storage"
          },
          {
            "astId": 736,
            "contract": "contracts/SSIDWithWallet.sol:SSIDWithWallet",
            "label": "dob",
            "offset": 0,
            "slot": "3",
            "type": "t_uint256"
          },
          {
            "astId": 738,
            "contract": "contracts/SSIDWithWallet.sol:SSIDWithWallet",
            "label": "wallet",
            "offset": 0,
            "slot": "4",
            "type": "t_address"
          },
          {
            "astId": 741,
            "contract": "contracts/SSIDWithWallet.sol:SSIDWithWallet",
            "label": "certificationIDs",
            "offset": 0,
            "slot": "5",
            "type": "t_array(t_uint256)dyn_storage"
          }
        ],
        "numberOfBytes": "192"
      },
      "t_uint256": {
        "encoding": "inplace",
        "label": "uint256",
        "numberOfBytes": "32"
      }
    }
  }
}